:020000020000FC
:040000000C94360026
:040038000C942601FD
:10006C000FEF0DBF00E10EBF0E943B010E94030188
:10007C000E940A010E94220104E007BF0E942E0187
:10008C007894388137FD000036FD000035FD0E9464
:10009C004C0234FD000033FD000032FD000031FD48
:1000AC00000030FD0000398137FD000036FD0000F6
:1000BC0035FD000034FD000033FD10E40E94010307
:1000CC0032FD000031FD000030FD00003A8137FDAB
:1000DC00000036FD000035FD000034FD000033FD4E
:1000EC00000032FD000031FD000030FD00003B81BE
:1000FC0037FD0E94170236FD000035FD000034FD6F
:10010C00000033FD000032FD000031FD000030FD29
:10011C0000003C8137FD000036FD000035FD00007D
:10012C0034FD000033FD000032FD000031FD000005
:10013C0030FD00003D8137FD11E00E94010336FDCA
:10014C00000035FD0E94E10234FD11E00E94010324
:10015C0033FD000032FD0E94E50231FD000030FD50
:10016C0011E00E9401033E8137FD000036FD0E9424
:10017C00E90235FD11E00E94010334FD0E94ED02FD
:10018C0033FD000032FD000031FD000030FD0000A9
:10019C003F8137FD000036FD12E00E94010335FD62
:1001AC000E94F10234FD000033FD12E00E940103B5
:1001BC0032FD0E94F50231FD000030FD12E00E947C
:1001CC000103388537FD0E94F90236FD000035FD2C
:1001DC0012E00E94010334FD0E94FD0233FD000079
:1001EC0032FD000031FD000030FD0000398537FD87
:1001FC00000036FD00000C9447000027B1E0A0E0A1
:10020C000D93AA30E9F7089500270A870B870FEFA3
:10021C0000830EEF018308E8028303830CEE048352
:10022C0005830683078306EFB1E0A4E10D93AC319F
:10023C00E9F706EF702E08950FE30ABB0FEF089550
:10024C000F930B8100680B830E942E010F91189560
:10025C000EB515E0119501230EBD0EEF0DBD09E78E
:10026C000CBD0EB505600EBD0895D1E0C0E0F1E007
:10027C00ECE008954A8547FF0C94510100810395E9
:10028C0049F40981006109830B8100640B834F776A
:10029C004A870FEF008346FF0C945E0101810395A2
:1002AC0031F40B8100620B834F7B4A870EEF018385
:1002BC0045FF0C946B010281039531F40B810061B5
:1002CC000B834F7D4A8708E8028344FF0C94780126
:1002DC000381039531F40B8108600B834F7E4A87B1
:1002EC0008E8038343FF0C9485010481039531F4E2
:1002FC000C8100620C83477F4A870CEE048342FF1B
:10030C000C9492010581039531F40C8100610C83EE
:10031C004B7F4A870CEE058341FF0C949F010681AD
:10032C00039531F40C8104600C834D7F4A870CEEED
:10033C00068340FF0C94AC010781039531F40C81CA
:10034C0002600C834E7F4A870CEE07834B8547FF78
:10035C000C94BA010085039531F40D8100640D8372
:10036C004F774B8706EF008746FF0C94C70101853A
:10037C00039531F40D8108600D834F7B4B8706EF9D
:10038C00018745FF0C94D4010285039531F40D814E
:10039C0002600D834F7D4B8706EF028744FF0C9460
:1003AC00E1010385039531F40E8100680E834F7EC5
:1003BC004B8706EF038743FF0C94EE0104850395EE
:1003CC0031F40F8100610F83477F4B8706EF048761
:1003DC0042FF0C94FB010585039531F40F810260FB
:1003EC000F834B7F4B8706EF058741FF0C94080268
:1003FC000685039531F40885006408874D7F4B878B
:10040C0006EF068740FF08950785039531F40885AC
:10041C00086008874E7F4B8706EF0787089500001A
:10042C0008950E9415020E944001739459F506EF3D
:10043C00702E03940AE000120C94480200241394CA
:10044C0006E010120C944802112423940AE02012A6
:10045C000C9448022224339406E030120C94480287
:10046C003324439408E140120C9441024424552453
:10047C0066240C94480253940AE050120C944802DF
:10048C00552463940B810F770B830895513081F4BD
:10049C00552766270D810E7400680D830E810F7D24
:1004AC000E8308810F7D08830B8500680B870895E8
:1004BC00523081F4552766270D810A7700610D8330
:1004CC000E810F7D0E8308810F7D08830B850064E0
:1004DC0008830895533081F4552766270D810E76D5
:1004EC0001600D830E810F790E8308810F7D0883C7
:1004FC000B8500620B870895543081F455276627CD
:10050C000D810E760D830E810F7E00620E830881A5
:10051C000F7D08830B8500610B870895553081F49E
:10052C00552766270F81067B00640F8308850F7D96
:10053C00088708810F7D08830B8508600B87089559
:10054C00563081F4552766270F81027B08600F8394
:10055C0008850F7D088708810F7D08830B85046053
:10056C000B870895573081F4552766270F81067B3A
:10057C0001600F8308850F75088708810F7D08833C
:10058C000B8502600B870895583089F45527662730
:10059C000F81067B01600F8308850F7C0062088742
:1005AC0008810F7D08830B8501600B8708955930F6
:1005BC0001F4089508950D810F770D8308950D8131
:1005CC000F7E0D8308950D810E7F0D8308950E818E
:1005DC000F7D0E8308950F810F7B0F8308950F817C
:1005EC00077F0F8308950F810E7F0F830895088571
:1005FC000F7D088708950BB3012B0BBB08950BB32C
:08060C00119501230BBB0895B9
:00000001FF
