:020000020000FC
:040000000C94460016
:040038000C94C20161
:10008C000FEF0DBF00E10EBF0E94D7010E941301BC
:10009C000E941A010E94BF010E9430010E947E0141
:1000AC0004E007BF0E94CA017894388137FD000034
:1000BC0036FD000035FD0E94F80234FD000033FDD2
:1000CC00000032FD000031FD000030FD00003981E0
:1000DC0037FD000036FD000035FD000034FD00004A
:1000EC0033FD0E94B70532FD000031FD000030FDEC
:1000FC0000003A8137FD000036FD000035FD0000A0
:10010C0034FD000033FD000032FD000031FD000025
:10011C0030FD00003B8137FD0E94C10236FD00001E
:10012C0035FD000034FD000033FD000032FD000001
:10013C0031FD000030FD00003C8137FD000036FD34
:10014C00000035FD000034FD000033FD000032FDE1
:10015C00000031FD000030FD00003D8137FD0E94A4
:10016C00A70536FD000035FD0E94650534FD0E9493
:10017C00A70533FD000032FD0E946B0531FD000028
:10018C0030FD0E94A7053E8137FD000036FD0E9420
:10019C00710535FD0E94A70534FD0E94770533FDDE
:1001AC00000032FD000031FD000030FD00003F81F9
:1001BC0037FD000036FD0E94AF0535FD0E947D0520
:1001CC0034FD000033FD0E94AF0532FD0E94830513
:1001DC0031FD000030FD0E94AF05388537FD0E94CF
:1001EC00890536FD000035FD0E94AF0534FD0E94E7
:1001FC008F0533FD000032FD000031FD000030FDA5
:10020C000000398537FD000036FD000035FD00008B
:10021C0034FD0E9495050C945B000027B1E0A0E032
:10022C000D93AA30E9F7089500270A870B870FEF83
:10023C0000830EEF018308E8028303830CEE048332
:10024C0005830683078306EFB1E0A4E10D93AD317E
:10025C00E9F70895002700911D010F3F11F1402E81
:10026C0000911E01102F16951695169516950F7068
:10027C00502E612E00911F01102F16951695169574
:10028C0016950F70202E312E00912001102F1695EF
:10029C001695169516950F70002E112E06EF702ED2
:1002AC000895002700931D0100931E0100931F0168
:1002BC00009320010C943001089540921D01062DED
:1002CC00000F000F000F000F050D00931E01032DF2
:1002DC00000F000F000F000F020D00931F01012DE6
:1002EC00000F000F000F000F000D00932001089568
:1002FC000027009121010F3FB9F0802E00912201BF
:10030C00902E00912301A02E00912401B02E00917B
:10031C002501C02E00912601D02E00912701E02E40
:10032C0000912801F02E08950FE70093210100930E
:10033C0022010093230100932401009325010093D3
:10034C00260100932701009328010C947E01089547
:10035C008092210190922201A0922301B09224015B
:10036C00C0922501D0922601E0922701F09228013B
:10037C0008950FE30ABB08950F930B8100680B835C
:10038C000E94CA010F9118950EB515E01195012325
:10039C000EBD0EEF0DBD09E70CBD0EB505600EBD13
:1003AC000895D1E0C0E0F1E0ECE008954A8547FF04
:1003BC000C94ED010081039549F4098100610983D6
:1003CC000B8100640B834F774A870FEF008346FF46
:1003DC000C94FA010181039531F40B8100620B83BB
:1003EC004F7B4A870EEF018345FF0C940702028175
:1003FC00039531F40B8100610B834F7D4A8708E82C
:10040C00028344FF0C9414020381039531F40B8195
:10041C0008600B834F7E4A8708E8038343FF0C94E4
:10042C0021020481039531F40C8100620C83477F17
:10043C004A870CEE048342FF0C942E02058103952F
:10044C0031F40C8100610C834B7F4A870CEE0583E1
:10045C0041FF0C943B020681039531F40C8104603E
:10046C000C834D7F4A870CEE068340FF0C944802A8
:10047C000781039531F40C8102600C834E7F4A870F
:10048C000CEE07834B8547FF0C94560200850395B1
:10049C0031F40D8100640D834F774B8706EF008795
:1004AC0046FF0C9463020185039531F40D810860BD
:1004BC000D834F7B4B8706EF018745FF0C94700231
:1004CC000285039531F40D8102600D834F7D4B87BE
:1004DC0006EF028744FF0C947D020385039531F4EB
:1004EC000E8100680E834F7E4B8706EF038743FF18
:1004FC000C948A020485039531F40F8100610F83FB
:10050C00477F4B8706EF048742FF0C9497020585C3
:10051C00039531F40F8102600F834B7F4B8706EFFD
:10052C00058741FF0C94A4020685039531F40885D8
:10053C00006408874D7F4B8706EF068740FF0C94BD
:10054C00B1020785039531F40885086008874E7F52
:10055C004B8706EF0787498543FF0895008903956C
:10056C0039F4098508600470098706EF0895008B3B
:10057C000895000008950E94BF020E94DC0173944C
:10058C0059F506EF702E03940AE000120C94F20257
:10059C000024139406E010120C94F20211242394FC
:1005AC000AE020120C94F2022224339406E030125A
:1005BC000C94F2023324439408E140120C94EB02A5
:1005CC004424552466240C94F20253940AE05012ED
:1005DC000C94F202552463940E9463010B810F77F3
:1005EC000B830895513069F4552766270E94260520
:1005FC000E9436050D8100680D830B8500680B8702
:10060C000895523069F4552766270E9426050E94EA
:10061C0036050D8100610D830B85006408830895F8
:10062C00533069F4552766270E9426050E9436052B
:10063C000D8101600D830B8500620B87089554308A
:10064C0069F4552766270E9426050E9436050E81FF
:10065C0000620E830B8500610B870895553069F499
:10066C00552766270E9426050E9436050F810064D7
:10067C000F830B8508600B870895563069F4552756
:10068C0066270E9426050E9436050F8108600F839D
:10069C000B8504600B870895573069F4552766273E
:1006AC000E9426050E9436050F8101600F830B8581
:1006BC0002600B870895583081F4552766270E94F5
:1006CC0026050E94360508850062088708810F7D83
:1006DC0008830B8501600B870895593071F45A30EB
:1006EC0061F45B3051F4552766270E9426050E9461
:1006FC00360509850862098708950E9436054D81E3
:10070C0047FD0E94A60344FD0E94D60340FD0E94B3
:10071C0006044E8145FD0E9436044F8146FD0E9421
:10072C00660443FD0E94960440FD0E94C604488561
:10073C0045FD0E94F604498545FD0E943A05089541
:10074C00653041F400E0801629F18A9401E18022A1
:10075C000C94D003643041F40FEF8016D9F08394DD
:10076C0001E180220C94D003633021F403E0802E4D
:10077C000C94D003623021F402E0802E0C94D00350
:10078C00613021F401E0802E0C94D003603011F420
:10079C0000E0802E0E8100610E830E94AE01089550
:1007AC00653041F400E0901629F19A9401E1902211
:1007BC000C940004643041F40FEF9016D9F093942C
:1007CC0001E190220C940004633021F40CEC902E87
:1007DC000C940004623021F406E9902E0C94000471
:1007EC00613021F402E3902E0C940004603011F47B
:1007FC0009E1902E0E8100640E830E94AE010895D3
:10080C00653041F400E0A01629F1AA9401E1A02280
:10081C000C943004643041F40FEFA016D9F0A3947B
:10082C0001E1A0220C943004633021F40CECA02ED6
:10083C000C943004623021F406E9A02E0C943004A0
:10084C00613021F402E3A02E0C943004603011F4DA
:10085C0009E1A02E0E8100620E830E94AE01089564
:10086C00653041F400E0B01629F1BA9401E1B022F0
:10087C000C946004643041F40FEFB016D9F0B394CB
:10088C0001E1B0220C946004633021F40CECB02E26
:10089C000C946004623021F406E9B02E0C946004D0
:1008AC00613021F402E3B02E0C946004603011F43A
:1008BC0009E1B02E0E8101600E830E94AE010895F5
:1008CC00653041F400E0C01629F1CA9401E1C02260
:1008DC000C949004643041F40FEFC016D9F0C3941B
:1008EC0001E1C0220C949004633021F403E0C02E8B
:1008FC000C949004623021F402E0C02E0C9490040D
:10090C00613021F401E0C02E0C949004603011F49D
:10091C0000E0C02E0885016008870E94AE01089592
:10092C00653041F400E0D01629F1DA9401E1D022CF
:10093C000C940004643041F40FEFD016D9F0D3942A
:10094C0001E1D0220C940004633021F40CECD02E85
:10095C000C940004623021F406E9D02E0C940004AF
:10096C00613021F402E3D02E0C940004603011F4B9
:10097C0009E1D02E0885026008870E94AE01089517
:10098C00653041F400E0E01629F1EA9401E1E0223F
:10099C000C94F004643041F40FEFE016D9F0E394BA
:1009AC0001E1E0220C94F004633021F40CECE02E15
:1009BC000C94F004623021F406E9E02E0C94F0045F
:1009CC00613021F402E3E02E0C94F004603011F459
:1009DC0009E1E02E0885016008870E94AE010895A8
:1009EC00653041F400E0F01629F1FA9401E1F022AF
:1009FC000C942005643041F40FEFF016D9F0F39409
:100A0C0001E1F0220C942005633021F40CECF02E63
:100A1C000C942005623021F406E9F02E0C9420058C
:100A2C00613021F402E3F02E0C942005603011F4B7
:100A3C0009E1F02E0985006809870E94AE0108952E
:100A4C000D810A740D830E8107780E830F81027954
:100A5C000F8308850776088709850F750987089520
:100A6C0008810F7D08830895653021F40E94D70515
:100A7C000C945C05643021F40E94E7050C945C0531
:100A8C00633021F40E94FB050C945C05623021F468
:100A9C000E9407060C945C05613021F40E94140638
:100AAC000C945C05603031F60E94200606EF702E27
:100ABC0009850F7E09870E946301089508950E949D
:100ACC00AB050D810F770D8308950E94AB050D8149
:100ADC000F7E0D8308950E94AB050D810E7F0D8353
:100AEC0008950E94AB050E810F7D0E8308950E9420
:100AFC00B3050F810F7B0F8308950E94B3050F81FF
:100B0C00077F0F8308950E94B3050F810E7F0F831B
:100B1C0008950E94B30508850F7D088708950E94EB
:100B2C00B30509850F7E098708950BB30000012BCF
:100B3C000BBB000008950BB3119501230BBB0000F8
:100B4C00089511E00E949B05089511E00E94A105F3
:100B5C00089512E00E949B05089512E00E94A105E1
:100B6C00089514E00E949B05089514E00E94A105CD
:100B7C00089518E00E949B05089518E00E94A105B5
:100B8C00089510E10E949B05089510E10E94A105B3
:100B9C00089510E20E949B05089510E20E94A105A1
:100BAC000895439408E140120C94E0054424662413
:100BBC005524089553940AE05012089555246394D3
:100BCC0008954A940FEF40120C94F30507E1402E60
:100BDC0002E0602E03E0502E08955A940FEF50124D
:100BEC00089509E0502E6A94089523940AE0201287
:100BFC0008952224339406E03012089533242224DD
:100C0C0008952A940FEF2012089509E0202E3A94AB
:100C1C000FEF3012089505E0302E089503940AE08A
:100C2C00001208950024139406E010120895112464
:100C3C00002408950A940FEF0012089509E0002E85
:0E0C4C001A940FEF1012089505E0102E08956F
:00000001FF
