:020000020000FC
:040000000C94460016
:040038000C947B01A8
:10008C000FEF0DBF00E10EBF0E9490010E940C010A
:10009C000E9413010E9477010E94290104E007BF0E
:1000AC000E9483017894388137FD000036FD0000F2
:1000BC0035FD0E94A30234FD000033FD000032FD2B
:1000CC00000031FD000030FD0000398137FD0000DB
:1000DC0036FD000035FD000034FD000033FD0E94AC
:1000EC00850332FD000031FD000030FD00003A8137
:1000FC0037FD000036FD000035FD000034FD00002A
:10010C0033FD000032FD000031FD000030FD000029
:10011C003B8137FD0E946C0236FD000035FD00006E
:10012C0034FD000033FD000032FD000031FD000005
:10013C0030FD00003C8137FD000036FD000035FD30
:10014C00000034FD000033FD000032FD000031FDE5
:10015C00000030FD00003D8137FD0E94750336FD27
:10016C00000035FD0E943C0334FD0E94750333FDF5
:10017C00000032FD0E94420331FD000030FD0E9460
:10018C0075033E8137FD000036FD0E94480335FDA6
:10019C000E94750334FD0E944E0333FD000032FDB6
:1001AC00000031FD000030FD00003F8137FD0000F4
:1001BC0036FD0E947D0335FD0E94540334FD000082
:1001CC0033FD0E947D0332FD0E945A0331FD000075
:1001DC0030FD0E947D03388537FD0E94600336FD9B
:1001EC00000035FD0E947D0334FD0E94660333FD43
:1001FC00000032FD000031FD000030FD00003985AB
:10020C0037FD000036FD00000C9459000027B1E0CA
:10021C00A0E00D93AA30E9F7089500270A870B8711
:10022C000FEF00830EEF018308E8028303830CEECB
:10023C00048305830683078306EFB1E0A4E10D93E5
:10024C00AD31E9F70895002700911D010F3F11F121
:10025C00402E00911E01102F169516951695169589
:10026C000F70502E612E00911F01102F16951695B0
:10027C00169516950F70202E312E00912001102FFF
:10028C0016951695169516950F70002E112E06EFD5
:10029C00702E0895002700931D0100931E010093FA
:1002AC001F01009320010C942901089540921D0117
:1002BC00062D000F000F000F000F050D00931E01FF
:1002CC00032D000F000F000F000F020D00931F01F4
:1002DC00012D000F000F000F000F000D00932001E7
:1002EC0008950FE30ABB0FEF08950F930B8100687D
:1002FC000B830E9483010F9118950EB515E0119593
:10030C0001230EBD0EEF0DBD09E70CBD0EB505604A
:10031C000EBD0895D1E0C0E0F1E0ECE008954A850F
:10032C0047FF0C94A6010081039549F409810061F3
:10033C0009830B8100640B834F774A870FEF00838F
:10034C0046FF0C94B3010181039531F40B810062DB
:10035C000B834F7B4A870EEF018345FF0C94C00142
:10036C000281039531F40B8100610B834F7D4A8729
:10037C0008E8028344FF0C94CD010381039531F40A
:10038C000B8108600B834F7E4A8708E8038343FF89
:10039C000C94DA010481039531F40C8100620C8316
:1003AC00477F4A870CEE048342FF0C94E7010581DA
:1003BC00039531F40C8100610C834B7F4A870CEE62
:1003CC00058341FF0C94F4010681039531F40C81F3
:1003DC0004600C834D7F4A870CEE068340FF0C941F
:1003EC0001020781039531F40C8102600C834E7F6E
:1003FC004A870CEE07834B8547FF0C940F02008550
:10040C00039531F40D8100640D834F774B8706EF14
:10041C00008746FF0C941C020185039531F40D8175
:10042C0008600D834F7B4B8706EF018745FF0C94CB
:10043C0029020285039531F40D8102600D834F7DF5
:10044C004B8706EF028744FF0C9436020385039515
:10045C0031F40E8100680E834F7E4B8706EF0387C5
:10046C0043FF0C9443020485039531F40F81006122
:10047C000F83477F4B8706EF048742FF0C94500293
:10048C000585039531F40F8102600F834B7F4B87F9
:10049C0006EF058741FF0C945D020685039531F448
:1004AC000885006408874D7F4B8706EF068740FF61
:1004BC0008950785039531F40885086008874E7FF9
:1004CC004B8706EF07870895000008950E946A0283
:1004DC000E949501739459F506EF702E03940AE06F
:1004EC0000120C949D020024139406E010120C943C
:1004FC009D02112423940AE020120C949D022224C4
:10050C00339406E030120C949D023324439408E19A
:10051C0040120C9496024424552466240C949D029B
:10052C0053940AE050120C949D02552463940E943B
:10053C005C010B810F770B830895513081F45527A3
:10054C0066270D810E7400680D830E810F7D0E835E
:10055C0008810F7D08830B8500680B870895523046
:10056C0081F4552766270D810A7700610D830E8172
:10057C000F7D0E8308810F7D08830B850064088333
:10058C000895533081F4552766270D810E7601604E
:10059C000D830E810F790E8308810F7D08830B85E7
:1005AC0000620B870895543081F4552766270D811E
:1005BC000E760D830E810F7E00620E8308810F7DF7
:1005CC0008830B8500610B870895553081F45527FE
:1005DC0066270F81067B00640F8308850F7D0887D3
:1005EC0008810F7D08830B8508600B8708955630B2
:1005FC0081F4552766270F81027B08600F830885DD
:10060C000F7D088708810F7D08830B8504600B879D
:10061C000895573081F4552766270F81067B0160BA
:10062C000F8308850F75088708810F7D08830B855C
:10063C0002600B870895583089F4552766270F817F
:10064C00067B01600F8308850F7C00620887088198
:10065C000F7D08830B8501600B870895593021F4B9
:10066C005A3011F45B3001F4089508950E94790317
:10067C000D810F770D8308950E9479030D810F7EF4
:10068C000D8308950E9479030D810E7F0D830895CB
:10069C000E9479030E810F7D0E8308950E948103C1
:1006AC000F810F7B0F8308950E9481030F81077FB9
:1006BC000F8308950E9481030F810E7F0F8308958D
:1006CC000E94810308850F7D088708950BB3012BC9
:1006DC000BBB08950BB3119501230BBB089511E0CF
:1006EC000E946C03089511E00E947003089512E0BB
:1006FC000E946C03089512E00E947003089514E0A8
:10070C000E946C03089514E00E947003089518E091
:10071C000E946C03089518E00E947003089510E184
:10072C000E946C03089510E10E947003089510E27A
:0E073C000E946C03089510E20E94700308955D
:00000001FF
